:02000002B0004C
:1040000000400B009C500B00000006000C00050255
:0840100004016810000000002B
:044018006C4D0B00E0
:10401C0009480A49884208B505D0094A824202D0AB
:10402C00121A00F0EBFD0748074A0021121A00F0A3
:10403C00F3FD014808BD00BF60E6032008500B00EB
:10404C00CCE60320CCE60320EDE7032070B5074E49
:10405C00074C00F01FFBA41BA4080025AC4200D1A8
:10406C0070BD56F8043B98470135F7E7B84F0B0085
:10407C00DC4F0B0000F013B808B500F011F8BDE8E8
:10408C00084000F0BFBA00F079B900F07FB90078B1
:10409C00B0FA80F0400970470123037070477047F5
:1040AC007047704710B510210446FFF7EEFF20460D
:1040BC0010BD0EB403B503AB002153F8042B0193D0
:1040CC0000F035FA02B05DF804EB03B07047000065
:1040DC0073B5044608462279A36832B1A3B90B49DB
:1040EC0002B0BDE8704000F0F1B9094A267B094DD9
:1040FC000949647B012E18BF2946CDE900140749F4
:10410C00FFF7D7FF02B070BD054AEFE7914D0B00EA
:10411C00884D0B008D4D0B00894D0B00A74D0B00EE
:10412C00804D0B00044B054A1A6000221A71044A98
:10413C009A6001229A817047CCE60320CC4D0B008B
:10414C0000093D0008B5024B1B689B68019308BD34
:10415C006802030008B5024B1B68DB68019308BDBD
:10416C006802030008B5024B1B685B68019308BD2D
:10417C001802030008B5024B1B685B69019308BD6C
:10418C001802030008B5024B1B685B6C019308BD59
:10419C004802030008B5024B1B685B69019308BD1C
:1041AC006402030008B5024B1B68DB68019308BD71
:1041BC003C02030008B5024B1B681B69019308BD48
:1041CC003C02030008B5024B1B685B69019308BDF8
:1041DC003C02030008B5024B1B689B69019308BDA8
:1041EC003C02030008B5024B1B68DB69019308BD58
:1041FC003C02030008B5024B1B689B6A019308BD87
:10420C003C02030008B5024B1B681B6C019308BDF4
:10421C003C02030008B5024B1B681B68019308BDE8
:10422C004C02030008B5024B1B681B69019308BDC7
:10423C004C02030008B5024B1B685B69019308BD77
:10424C004C02030008B5024B1B689B69019308BD27
:10425C004C02030008B5024B1B68DB69019308BDD7
:10426C004C02030008B5024B1B681B6A019308BD86
:10427C004C02030008B5024B1B685B68019308BD38
:10428C002002030008B5034B1B68D3F88830019358
:10429C0008BD00002002030008B5034B1B68D3F8CF
:1042AC009430019308BD00002002030008B5024BB6
:1042BC001B685B68019308BD4002030008B5024B04
:1042CC001B689B68019308BD4002030008B5024BB4
:1042DC001B68DB68019308BD4002030008B5024B64
:1042EC001B681B69019308BD4002030008B5024B13
:1042FC001B685B69019308BD4002030008B5024BC3
:10430C001B689B69019308BD4002030008B5024B72
:10431C001B68DB69019308BD4002030008B5024B22
:10432C001B681B6A019308BD4002030008B5024BD1
:10433C001B681B6B019308BD4002030008B5024BC0
:10434C001B685B6B019308BD4002030008B5024B70
:10435C001B681B6C019308BD4002030008B5024B9F
:10436C001B685B6C019308BD4002030008B5024B4F
:10437C001B68DB6B019308BD4402030008B5024BBC
:10438C001B681B68019308BD1C02030008B5024B97
:10439C001B685B68019308BD1C02030008B5024B47
:1043AC001B685B6A019308BD1C02030008B5024B35
:1043BC001B681B6C019308BD1C02030008B5024B63
:1043CC001B685B6C019308BD1C0203000022406853
:1043DC001146FFF7A3BF002240681146FFF7AEBF9E
:1043EC0040680022FFF7A2BF4068002281F0010163
:1043FC00FFF78CBF002340681A461946FFF77EBFB3
:10440C00002340681A461946FFF770BF0022406827
:10441C001146FFF763BF002240681146FFF74EBFFD
:10442C00406800220221FFF751BF002340681A4662
:10443C00FFF73CBF024B03225A60024A1A607047D6
:10444C00DCE60320E04D0B00054B02221A60054B05
:10445C00054A9A600020C3E90000FFF70BBF00BFBC
:10446C00F0E60320E4E603200000FFFF02480023EF
:10447C000360FFF787BE00BFF4E60320F8B50646DD
:10448C000D468F180024BD420CD0336815F8011B63
:10449C009B6830469847031E01DB1C44F3E7002C55
:1044AC0008BF1C462046F8BD13B50446084659B152
:1044BC00019100F0E7FB23680199DB680246204676
:1044CC0002B0BDE81040184702B010BD08B5FFF7A8
:1044DC00EBFF08BD03689B68184738B50D210546EE
:1044EC00FFF7F8FF0A2104462846FFF7F3FF2044A4
:1044FC0038BD30B58BB00023012A8DF8243098BF1D
:10450C000A2209AC0D46B1FBF2F101FB125303F088
:10451C00FF03092B94BF30333733DBB2AA4204F8C4
:10452C00013DEFD92146FFF7BFFF0BB030BD2DE9A0
:10453C00F04186B000AF05460E46381D14211446D6
:10454C003B60FFF72BFF13280ED8391D2846FFF7C9
:10455C00ABFF04461EB12846FFF7BFFF04442046BC
:10456C001837BD46BDE8F08100F1080323F00703BE
:10457C00E846ADEB030D2246411C3B686846FFF74D
:10458C000DFF69462846FFF78FFF0446C546E1E755
:10459C00014B024A1A607047F8E60320144E0B00D8
:1045AC00024B1A68024B1A60704700BF60E603208A
:1045BC00FCE60320014B00229A60704700E70320C1
:1045CC00014B1860704700BF64E6032008B50B4B25
:1045DC0043B100F063F903681B699847002801DDBB
:1045EC00AFF30080064B43B100F0DCFA03681B69A3
:1045FC009847002801DDAFF3008008BD00000000E3
:10460C000000000008B5FFF7E1FFFFF7B3FD014B19
:10461C00186008BD58E703200548064A064908B546
:10462C00121A00F0EBFA054B054A1A6008BD00BFE0
:10463C0000F4032004F4032004500B0000F40320C6
:10464C001E1C279A07B5002300931A466FF07701BA
:10465C00FFF722FE03B05DF804FB000007B54388AA
:10466C000A2B08D0502B0BD1094B1B684BB103B054
:10467C005DF804EB1847FFF7E5FF03B05DF804FBAA
:10468C00002300931A466FF07701FFF705FEF4E75D
:10469C0014E7032010B512480021FFF78FFE114BD1
:1046AC001A68114B9A42114B0CBF012200221A704E
:1046BC0001D0FFF7B1FFFFF755FD044600F0B4FA47
:1046CC000B4B13B12046AFF3008000210848FFF7D5
:1046DC004DFEBDE8104007480021FFF7D3BD00BFD9
:1046EC00CD450B0000F403201E1C279A10E7032075
:1046FC000000000069460B00704710B518210446F5
:10470C00FFF7C3FC204610BDF0B5037D062B8DB022
:10471C000E4600F104074FF0000412D000F108051A
:10472C0015F8011D0A223046FFF7E3FEAF420444A0
:10473C0019D0002CF4D02E213046FFF7CBFE0444C8
:10474C00EEE72F236A4639460A208DF80040FFF722
:10475C0021FD684600F096FA33680246DB6869462C
:10476C0030469847044620460DB0F0BD10B5054BB9
:10477C000446112240F8043B002100F04DFA20467B
:10478C0010BD00BF3C4E0B000346074A10B543F862
:10479C00042B01F1100251F8044B43F8044B9142E5
:1047AC00F9D10A781A7010BD3C4E0B0010B59DF86B
:1047BC00084044EA032343EA024242EA016104232B
:1047CC004160037510BD000007B5064B0360CB7844
:1047DC0000938B784A780978FFF7E8FF03B05DF80F
:1047EC0004FB00BF3C4E0B00417470477047704790
:1047FC0008B50021007CFFF725FD40EAE07008BDFC
:10480C0008B50121007CFFF71DFD40EAE07008BDF2
:10481C0008B5007CFFF70EFD20EAE07008BD08B576
:10482C00007CFFF7FFFC20EAE07008BD13B50446DE
:10483C00007C0191FFF7FEFC0028019901DC607CF3
:10484C0020B1207CFFF706FD20EAE07002B010BD1D
:10485C00007CFFF707BD10B514210446FFF715FCCB
:10486C00204610BD10B54FF47A730446084600215B
:10487C00C4E90113044B23600123207463741146B3
:10488C00FFF7C8FC204610BD504E0B0010B514228B
:10489C000446002100F0C0F9204610BD10B50F4CA5
:1048AC0088B003A8FFF7F2FF2178BFF35B8F11F0FC
:1048BC0001010FD120460191FFF7E9FB019948B1A5
:1048CC0003AA0748FFF7CEFF2046FFF7E5FB054894
:1048DC0000F08EF9024808B010BD00BF18E70320A5
:1048EC001CE70320F9470B0070474174704708B56B
:1048FC00007CFFF77FFC20EAE07008BD08B5007C67
:10490C00FFF758FC20EAE07008BD08B5007CFFF703
:10491C0061FC40EAE07008BD08B5007CFFF752FC72
:10492C0040EAE07008BD007CFFF75CBC37B5457C05
:10493C0004462DB1207C03B0BDE83040FFF732BCFB
:10494C00007C0191FFF756FC00280199F2DC284607
:10495C0003B030BD10B514210446FFF796FB20467A
:10496C0010BD000010B54FF47A730446084611468A
:10497C000022C4E90123044B2360012320746374D7
:10498C00FFF740FC204610BD804E0B000022406813
:10499C001146FFF7A3BC002240681146FFF7BEBCCE
:1049AC00002240681146FFF7C9BC40680022FFF79F
:1049BC00BDBC4068002281F00101FFF7A7BC0023B9
:1049CC0040681A461946FFF799BC002340681A46FE
:1049DC001946FFF78BBC002240681146FFF76EBCEE
:1049EC00406800220221FFF771BC002340681A4680
:1049FC00FFF75CBC024B04225A60024A1A607047F3
:104A0C0030E70320B04E0B00002340681A46FFF736
:104A1C004DBC406800220221FFF758BC00224068C0
:104A2C001146FFF74BBC002240681146FFF756BCFD
:104A3C00002340681A461946FFF758BC002340680B
:104A4C001A461946FFF75ABC40680021FFF77EBC96
:104A5C0040680021FFF782BC4068002281F0010110
:104A6C00FFF754BC40680022FFF760BC002240688E
:104A7C001146FFF763BC002240681146FFF74EBC9D
:104A8C002DE9F04395B014460D460746FFF76EFE30
:104A9C0000211C220DA8009100F0BEF840230C93BD
:104AAC0020466B460CAA0021FFF754FB0446002855
:104ABC004BD1024601216868FFF710FC02218046A9
:104ACC0022466868FFF70AFC009E81462146002EAC
:104ADC003BD0002939D17368022B03D00A2B11D09B
:104AEC00F669F4E7B8F1000FFAD0716906A8043141
:104AFC0007ADFFF769FE0FCD3C1D0FC42B6823706B
:104B0C004146EDE7B9F1000FEAD07469102201A813
:104B1C0000F082F806238DF8143001AD04F108037F
:104B2C001834186859682A4603C20833A34215463C
:104B3C00F7D101A906A807ADFFF726FE0FCD3C1D46
:104B4C000FC42B6823704946CAE70098FFF7FAFA9E
:104B5C00384615B0BDE8F083024B034A1A600022B8
:104B6C005A60704738E70320EC4E0B00704700008A
:104B7C0038B5044614252A46002100F04DF825804E
:104B8C004025074925812846258200F02FF8044945
:104B9C006060284600F02AF8E060204638BD00BF6F
:104BAC00204F0B0030B50E4D2978BFF35B8F11F001
:104BBC00010487B011D12846FFF769FA68B101A842
:104BCC00FFF7D6FF01AA21460648FFF7CBFE284681
:104BDC00FFF762FA044800F00BF8024807B030BD4A
:104BEC0040E7032044E70320794B0B00FFF74BBA57
:104BFC00002301461A46184600F04CB80A4491426C
:104C0C0000F1FF3300D1704710B511F8014B03F8D8
:104C1C00014F9142F9D110BD02440346934200D199
:104C2C00704703F8011BF9E738B5104B1D68AB6BE7
:104C3C000446B3B91820FFF7A1FB0246A86320B9BC
:104C4C000B4B0C484221FFF7B1FB0B490B4BC0E956
:104C5C0000130B4B83600B23838100210120C2E9DD
:104C6C000401AB6B00221C615A6138BD64E6032061
:104C7C00214F0B00384F0B000E33CDAB34126DE6C9
:104C8C00ECDE0500034613F8012B002AFBD1181AA1
:104C9C00013870472DE9F843DFF8B8800646D8F89C
:104CAC0000001F460D46914600F056F8254B1C6837
:104CBC0034B9254C1C60254B13B11B68C4F88830E3
:104CCC0063681F2B07DDD8F8000000F047F84FF0A1
:104CDC00FF30BDE8F8834EB3D4F8880088B91C4B7C
:104CEC0023B9D8F8000000F038F8F0E74FF48470DE
:104CFC00FFF744FB0028F4D00023C0E94033C4F88C
:104D0C008800636840F8239001229A4000EB8301ED
:104D1C00D0F800311343C0F80031022EC1F8807076
:104D2C0002BFD0F804311343C0F804316368D8F8DB
:104D3C0000005A1C0233626044F8235000F00EF855
:104D4C000020C6E7E8E703205CE703200000000032
:104D5C0089430B00C8E6032070477047704700007A
:104D6C001D400B0059400B0081400B0085400B008F
:104D7C000000000064656661756C7420004D534240
:104D8C00004C5342003C53504953657474696E6730
:104D9C00732064656661756C743E003C53504953D6
:104DAC00657474696E6773202573257520257320CF
:104DBC004D4F444525753E000000000000000000EA
:104DCC00DD400B00AF400B00B1400B0000000000B9
:104DDC000000000037440B002D440B0023440B0053
:104DEC0019440B000D440B0001440B00554A0B00F9
:104DFC005D4A0B00F5430B00ED430B00E3430B0046
:104E0C00D9430B008D4A0B006170700025592D257C
:104E1C006D2D25645425483A254D3A2553257A00A5
:104E2C0061736374696D6500000000000000000090
:104E3C0015470B0005470B0007470B00000000004F
:104E4C0000000000FB470B0063480B0039480B00C7
:104E5C0089440B002B480B00FD470B000D480B0041
:104E6C005D480B001D480B00F5470B0000000000CF
:104E7C0000000000F5480B0061490B0039490B009C
:104E8C0089440B0009490B0025490B0017490B00FD
:104E9C0033490B00F7480B00FB480B0000000000E7
:104EAC0000000000F7490B00ED490B00E3490B0033
:104EBC0099490B00D7490B00CB490B00554A0B0005
:104ECC005D4A0B00BF490B00B7490B00AD490B0005
:104EDC00A3490B008D4A0B000000000000000000ED
:104EEC00154A0B001F4A0B00294A0B00334A0B00D2
:104EFC003D4A0B00494A0B00554A0B005D4A0B001A
:104F0C00654A0B00714A0B00794A0B00834A0B006F
:104F1C008D4A0B00005245454E54206D616C6C6FF0
:104F2C006320737563636565646564002F6D6E74CF
:104F3C002F776F726B73706163652F776F726B7302
:104F4C00706163652F4743432D31302D7069706557
:104F5C006C696E652F6A656E6B696E732D47434382
:104F6C002D31302D706970656C696E652D34385F2C
:104F7C0032303230313132345F31363036313830D4
:104F8C003634312F7372632F6E65776C69622F6EB6
:104F9C0065776C69622F6C6962632F7374646C69DA
:104FAC00622F72616E642E630000000031410B00B1
:104FBC0041440B0055440B0079440B009D450B00FC
:104FCC00AD450B00C1450B00014A0B00654B0B00B6
:044FDC0000000000D1
:104FE000040000001400000003000000474E5500BC
:104FF0006FBAAC7356207653296BE980E0CC84FA03
:045000002E43872193
:0450040000000000A8
:105008002C4E0B0068E603200000000000000000A2
:105018000000000000000000000000000000000088
:105028000000000000000000000000000000000078
:105038000000000000000000000000000000000068
:105048000000000000000000000000000000000058
:105058000000000000000000000000000000000048
:0C5068000000000000000000ECE7032046
:10507400FFFFFFFF00000102030405060708090AF9
:105084000B0C0D0E0F101112131415161718191AF4
:085094001B1C1D1E1F2028003B
:04509C0078563412FC
:04000003B000401CED
:00000001FF
