:02000002B0004C
:1040000000400B0098630B00000006000C00050246
:0840100004016810000000002B
:04401800545E0B00E7
:10401C0009480A49884208B505D0094A824202D0AB
:10402C00121A01F05FFE0748074A0021121A01F02C
:10403C0067FE014808BD00BFFCE50320F8620B00D9
:10404C0074E6032074E60320EDE7032070B5074EF9
:10405C00074C01F085FAA41BA4080025AC4200D142
:10406C0070BD56F8043B98470135F7E7A0620B008A
:10407C00C8620B0000F014B808B500F053F8BDE8A6
:10408C00084001F025BA01F01FB801F025B80078FE
:10409C00B0FA80F0400970470123037070470000AC
:1040AC0008B54FF4FA6001F0E7F901F067FB4FF443
:1040BC00165101F051FB01F061FB01F054FB00289B
:1040CC00F9D00121072001F049FD01F057FB1049FF
:1040DC0001F054F90F48082100F0D2F80D480021E6
:1040EC0000F0ACF80B4800F095FD50B901F046FB20
:1040FC00094901F056F901F041FB084901F051F969
:10410C00FEE701F03BFBBDE80840054901F049B969
:10411C00685E0B0098E60320795E0B00805E0B0056
:10412C00915E0B0073B51C4C01F028FB01261B495A
:10413C0001F037F963881A4900960B22204600F0EB
:10414C00FDFC01F01BFB174901F018F901F016FBFF
:10415C000A226188054601F02EF9284601F015F96E
:10416C006388314633440720638001F008FD4FF427
:10417C007A7001F081F90021072001F000FD01F0B7
:10418C00FDFA094901F00DF947F2305002B0BDE8D3
:10419C00704001F071B900BF98E60320945E0B00EB
:1041AC00FCE50320A95E0B00B95E0B00024804235A
:1041BC000822072100F0A3B898E60320704710B539
:1041CC0010210446FFF761FF204610BD0EB403B565
:1041DC0003AB002153F8042B019301F00AF902B050
:1041EC005DF804EB03B0704773B5044608462279BA
:1041FC00A36832B1A3B90B4902B0BDE8704001F01D
:10420C00BDB8094A267B094D0949647B012E18BFAC
:10421C002946CDE900140749FFF7D8FF02B070BD5D
:10422C00054AEFE7D65E0B00205F0B00D25E0B0059
:10423C00CE5E0B00EC5E0B00C55E0B000139052950
:10424C0004D8DFE801F0090C0F12151A47F2742399
:10425C00838104238373704748F27423F8E747F291
:10426C008423F5E747F29423F2E747F2A423EFE720
:10427C0047F2B42383810C23ECE747F2C423F9E71C
:10428C00002343724381072936D8DFE801F0040B81
:10429C0011171D23292F4FF4614303814CF2F903AD
:1042AC00438170474FF46243038148F60643F7E7B6
:1042BC004FF46243038145F61313F1E74FF4624365
:1042CC00038142F22063EBE74FF4624303814FF228
:1042DC002C33E5E74FF4624303814CF23903DFE7FB
:1042EC004FF46243038148F64643D9E74FF46243E7
:1042FC00038145F65313D3E701230372704710B5BE
:10430C0081714271C37110BD00220F2A18BF4B7806
:10431C00087814BFDB090023013203EB4003102A99
:10432C0001F8013BF1D1704710B54B1E013A0F312A
:10433C0013F8010F12F8014F8B4280EA0400187039
:10434C00F6D110BD70B500200D18002312F82360B3
:10435C0015F8014B744002F823400133042BF5D1BE
:10436C000430102802F10102EED170BD034B01F0B4
:10437C000F0201F0F0011944885C7047905F0B004C
:10438C004A790B790A718A794A71CA798A718A7A5F
:10439C00CB710B7A0A72CA7A8B724B7A4A728A7B0D
:1043AC00CB72CB7BCA734A7B8A730A7B4A730B73BF
:1043BC007047F7B50E1D6D4601A8002211F822407A
:1043CC0005F8014B6300DBB2240602F1010248BF81
:1043DC0083F01B03042A037000F10100EED19DF859
:1043EC0002509DF805309DF801409DF803C09DF8E2
:1043FC0004209DF800706B4062408CEA030382EA53
:10440C00030001F8010B9DF806007B40434084EA51
:10441C000C04CB707C409DF8073060407D405840C8
:10442C006B405A408E42C871CA72C4D103B0F0BD01
:10443C00F7B5054614460127012909D07B00DBB2EC
:10444C003A0648BF83F01B030139C9B21F46F3E794
:10445C00617B2846FFF78AFFA17B06462846FFF7BB
:10446C0085FFE17B8DF805002846FFF77FFF217B58
:10447C008DF806002846FFF779FF7E408DF807007F
:10448C008DF804600023251D1A1901A8EE18117867
:10449C000778794002F8011BB24200F8011BF6D1F3
:1044AC000433102BF0D103B0F0BD2DE9F04788B0E8
:1044BC0004AC05460F4620460023DE19002116F8F1
:1044CC0001CB00F821C001310429F8D10433102BA1
:1044DC0000F10100F1D16E4602F1100C1068516828
:1044EC00334603C3083262451E46F7D1224669465D
:1044FC002846FFF727FF01264FF0000808EB040AB7
:10450C004FF000099AF800102846FFF72FFF09F129
:10451C000109B9F1040F0AF8040BF3D108F10108F1
:10452C00B8F1040FEAD121462846FFF729FFFFF71F
:10453C0040FF31466A4628460136FFF779FFF6B24E
:10454C00224669462846FFF7FDFE0A2ED4D10026E6
:10455C0006EB04094FF0000899F800102846FFF705
:10456C0005FF08F10108B8F1040F09F8040BF3D1A9
:10457C000136042EECD128462146FFF701FF6A468E
:10458C000A21FFF755FF224669462846FFF7DAFE57
:10459C000023F918002214F8220001F8010B013253
:1045AC00042AF8D10433102B04F10104F1D108B022
:1045BC00BDE8F0872DE9F04F89B098469DF848305A
:1045CC000293170912F00F05C8F307234FF00106E9
:1045DC00DFF8C090DFF8C0B001930C4618BF01376C
:1045EC00B246BE4253D8029A8DF8152099F8032092
:1045FC008DF8162099F802208DF8172099F80120D3
:10460C008DF8182099F800208DF81920019A8DF852
:10461C001B2000235A4604A903908DF810A08DF896
:10462C0011308DF812308DF813308DF814308DF860
:10463C001A808DF81C308DF81D308DF81E308DF8D9
:10464C001F60FFF732FFBE4203980ED0631E04A911
:10465C0004F10F0C13F801EF11F8012B634582EAFA
:10466C000E021A70F6D110340EE0002D08BF102582
:10467C0004AB611994F800C013F8012B82EA0C0208
:10468C0004F8012B8C42F5D10136F6B2A9E709B03A
:10469C00BDE8F08F84E6032074E60320F8B50C46E1
:1046AC001546134A0646FFF700FF94F900702146A1
:1046BC003046FFF729FE002FBEBFE37B83F0870354
:1046CC00E3736A1E631E0F3413F8011F02F8011FF7
:1046DC00A342F9D195F9004029463046FFF714FE64
:1046EC00002CBEBFEB7B83F08703EB73F8BD00BFE0
:1046FC0088E603202DE9F04F99B016467E4A229C9D
:10470C00029108AF054602F1100EBB4610685168C5
:10471C00BC46ACE80300083272456746F6D10CAFD4
:10472C00754ABA4610685168BC46ACE803000832BA
:10473C0072456746F6D1704A0DF1400C02F1100E2D
:10474C0010685168674603C708327245BC46F7D1FA
:10475C000DF1500C684A674610685168E046A8E8AD
:10476C00030008327245C446F6D19DF88C108DF8C2
:10477C00151062498DF81A40C8788DF81600492238
:10478C0088788DF810208DF8170000224878097869
:10479C008DF81120240A8DF812208DF813208DF835
:1047AC0014208DF818008DF819108DF81B408DF819
:1047BC001C2004AC8DF81D208DF81E208DF81F30A8
:1047CC004FEA1318524613F00F035946284601932B
:1047DC0018BF08F10108FFF761FF2146484A284637
:1047EC00FFF763FE94E80F000DF1400C8CE80F000E
:1047FC00029B103B4FF0000914AC039309F1010923
:10480C005FFA89F343451ED2039B03EB0913A446BD
:10481C0003F1100E18685968624603C208337345D9
:10482C009446F7D110AA21462846FFF77DFD344A5D
:10483C0021462846FFF739FE94E80F000DF1400C95
:10484C008CE80F00DAE708F1FF33029ADBB2B8F11B
:10485C00000F4FEA031308BF00231A441346019AB2
:10486C0072BB03F1100C18685968224603C2083356
:10487C0063451446F7D15A4639462846FFF754FD8E
:10488C0010AA39462846FFF74FFD1D4A39462846DF
:10489C00FFF70BFE9DF8503033709DF8513073705C
:1048AC009DF85230B3709DF85330F37003F007034A
:1048BC002B71B37803F007032B7019B0BDE8F08FA0
:1048CC00002290464FF0800C0198D1B2814209D25F
:1048DC0013F801EB84F800E00198814288BF84F85A
:1048EC00008002E0F8D184F800C00132102A04F1F3
:1048FC000104E9D15246BFE7685F0B0084E6032050
:10490C0088E6032013B50B4C2178BFF35B8F11F0B5
:10491C0001010BD120460191FFF7B9FB019928B198
:10492C00054800F03DFC2046FFF7B6FB024802B0FC
:10493C0010BD00BFA8E60320ACE6032007B501902C
:10494C00FFF7E0FF019903B05DF804EB00F0CEBC7B
:10495C0070B506460D46FFF7D5FF1B4900F058FC15
:10496C0096F90500002180B201F009F905F07F00ED
:10497C00FFF7E4FF0020FFF7E1FF044696F905007E
:10498C00012180B201F0FBF8FFF7BCFF00F026FC20
:10499C0000F0F4FE0D4900F0F1FC00F0EFFE1022E7
:1049AC00294600F008FD00F0E9FE094900F0E6FC9C
:1049BC0000F0E4FE10220546214600F0FCFC2846DF
:1049CC0000F0E3FC204670BDB4E60320095F0B0049
:1049DC00195F0B00F8B515460E46044600F0CEFEE6
:1049EC001A4900F0CBFC00F0C9FE1022314600F051
:1049FC00E2FC00F0C3FE164900F0C0FC00F0BEFE65
:104A0C0010222946074600F0D6FC384600F0BDFCC3
:104A1C00FFF778FF0F4900F0FBFB94F9050000212C
:104A2C0080B201F0ACF846F08000FFF787FF284613
:104A3C00FFF784FF94F90500012180B201F09FF883
:104A4C00FFF760FFBDE8F84000F0C8BB215F0B002A
:104A5C00195F0B00B4E60320F8B50D46164601218C
:104A6C0081220446FFF7B6FF0A2000F005FD402224
:104A7C0011462046FFF7AEFF237A002B3DD0237959
:104A8C002D4F03EB43030621FA5C2046FFF7A2FFF0
:104A9C00237903EB43033B4407215A782046FFF765
:104AAC0099FF237903EB43031F44BA78082120466E
:104ABC00FFF790FF227B1E212046FFF78BFF627BC6
:104ACC001D212046FFF786FFA27B26212046FFF7FB
:104ADC0081FF324622212046FFF77CFF80220D21E8
:104AEC002046FFF777FF2E44B54212D015F8012B64
:104AFC0000212046FFF76EFFF6E7627A062120467A
:104B0C00FFF768FFA27A07212046FFF763FFE27ADE
:104B1C00CCE7832201212046FFF75CFF94F90600C5
:104B2C0080B201F045F80028F8D020460022BDE8FC
:104B3C00F8400121FFF74EBF785F0B002DE9F047DD
:104B4C001E46D31D94B003F4FC7302AFADEB030D02
:104B5C0002AD144680464FF00009284601F0C2F819
:104B6C003346224629464046CDF80090FFF722FDF9
:104B7C0040233B72244B87F80D90DA787A729A783E
:104B8C00BA725A781B783B73330A2946FA72FB7354
:104B9C00224697F868303B7407F11100BE7301F0A0
:104BAC00A1F800F0EBFD194900F0E8FB00F0E6FD80
:104BBC0004F10905EDB2294682460A2200F0FBFBFE
:104BCC00504600F0E2FB2B463A1D07F10801404627
:104BDC00CDE90069FFF78EFD07F148031D4404F190
:104BEC000D027B6845F8403CD2B207F10801404603
:104BFC00FFF732FF00F0C2FD054900F0D2FB483749
:104C0C00BD46BDE8F08700BF84E60320325F0B0091
:104C1C00435F0B0010B50446FFF774FE00F0CAFAB0
:104C2C0094F90500012180B200F098FF94F9060078
:104C3C00002180B200F092FF94F90700002815DDE6
:104C4C00012180B200F08AFF94F90700002180B2A4
:104C5C0000F095FF002000F00FFC94F907000121F3
:104C6C0080B200F08CFF052000F006FC42212046AB
:104C7C00FFF76EFE122840D1002201212046FFF7DB
:104C8C00A9FE802201212046FFF7A4FEFF22092164
:104C9C002046FFF79FFE25221F212046FFF79AFE94
:104CAC00002220212046FFF795FE082221212046D4
:104CBC00FFF790FE0C2226212046FFF78BFE3422B4
:104CCC0039212046FFF786FE272233212046FFF7A5
:104CDC0081FE1D223B212046FFF77CFE80220E2107
:104CEC002046FFF777FE204600220F21FFF772FEC9
:104CFC00002363802370012010BD0020FCE700001E
:104D0C00044B054A1A6000221A71044A9A60012267
:104D1C009A817047B4E603205C5F0B0000093D00EC
:104D2C0008B5024B1B689B68019308BD6802030021
:104D3C0008B5024B1B68DB68019308BD68020300D1
:104D4C0008B5024B1B689B68019308BD2C0203003D
:104D5C0008B5024B1B68DB68019308BD2C020300ED
:104D6C0008B5024B1B681B69019308BD2C0203009C
:104D7C0008B5024B1B685B69019308BD2C0203004C
:104D8C0008B5024B1B685B68019308BD1802030051
:104D9C0008B5024B1B685B69019308BD1802030040
:104DAC0008B5024B1B685B6C019308BD48020300FD
:104DBC0008B5024B1B685B69019308BD64020300D4
:104DCC0008B5024B1B68DB68019308BD3C0203006D
:104DDC0008B5024B1B681B69019308BD3C0203001C
:104DEC0008B5024B1B685B69019308BD3C020300CC
:104DFC0008B5024B1B689B69019308BD3C0203007C
:104E0C0008B5024B1B68DB69019308BD3C0203002B
:104E1C0008B5024B1B681B6A019308BD3C020300DA
:104E2C0008B5024B1B689B6A019308BD3C0203004A
:104E3C0008B5024B1B681B6C019308BD3C020300B8
:104E4C0008B5024B1B681B6A019308BD28020300BE
:104E5C0008B5024B1B685B6A019308BD280203006E
:104E6C0008B5024B1B689B6A019308BD280203001E
:104E7C0008B5024B1B68DB6A019308BD28020300CE
:104E8C0008B5024B1B681B6B019308BD280203007D
:104E9C0008B5024B1B685B6B019308BD280203002D
:104EAC0008B5024B1B681B6C019308BD280203005C
:104EBC0008B5024B1B681B68019308BD3002030048
:104ECC0008B5024B1B685B69019308BD30020300F7
:104EDC0008B5024B1B68DB69019308BD3002030067
:104EEC0008B5024B1B681B6A019308BD3002030016
:104EFC0008B5024B1B685B6A019308BD30020300C6
:104F0C0008B5024B1B68DB6B019308BD3002030034
:104F1C0008B5024B1B681B6C019308BD30020300E3
:104F2C0008B5024B1B685B6C019308BD3002030093
:104F3C0008B5024B1B681B68019308BD4C020300AB
:104F4C0008B5024B1B685B68019308BD4C0203005B
:104F5C0008B5024B1B681B69019308BD4C0203008A
:104F6C0008B5024B1B685B69019308BD4C0203003A
:104F7C0008B5024B1B689B69019308BD4C020300EA
:104F8C0008B5024B1B68DB69019308BD4C0203009A
:104F9C0008B5024B1B681B6A019308BD4C02030049
:104FAC0008B5024B1B685B6A019308BD4C020300F9
:104FBC0008B5024B1B685B68019308BD2002030017
:104FCC0008B5024B1B685B69019308BD2002030006
:104FDC0008B5034B1B68D3F88830019308BD00005B
:104FEC002002030008B5034B1B68D3F894300193DF
:104FFC0008BD00002002030008B5024B1B685B686B
:10500C00019308BD4002030008B5024B1B689B6866
:10501C00019308BD4002030008B5024B1B68DB6816
:10502C00019308BD4002030008B5024B1B681B69C5
:10503C00019308BD4002030008B5024B1B685B6975
:10504C00019308BD4002030008B5024B1B689B6925
:10505C00019308BD4002030008B5024B1B68DB69D5
:10506C00019308BD4002030008B5024B1B681B6A84
:10507C00019308BD4002030008B5024B1B681B6B73
:10508C00019308BD4002030008B5024B1B685B6B23
:10509C00019308BD4002030008B5024B1B681B6C52
:1050AC00019308BD4002030008B5024B1B685B6C02
:1050BC00019308BD4002030008B5024B1B68DB6B73
:1050CC00019308BD4402030008B5024B1B681B6822
:1050DC00019308BD1C02030008B5024B1B685B68FA
:1050EC00019308BD1C02030008B5024B1B685B6AE8
:1050FC00019308BD1C02030008B5024B1B681B6C16
:10510C00019308BD1C02030008B5024B1B685B6CC5
:10511C00019308BD1C020300002240681146FFF7F2
:10512C00A3BF002240681146FFF7AEBF40680022C3
:10513C00FFF7A2BF4068002281F00101FFF78CBF8E
:10514C00002340681A461946FFF77EBF00234068CB
:10515C001A461946FFF770BF002240681146FFF748
:10516C0063BF002240681146FFF74EBF4068002223
:10517C000221FFF751BF002340681A46FFF73CBFDE
:10518C00024B03225A60024A1A607047C4E603209D
:10519C0098600B000021FFF7C3BE0021FFF7B8BEDB
:1051AC0010B5044608462170FFF792FE0023636099
:1051BC00204610BD13B504460078FFF7EEFF58B932
:1051CC00207801904FF6FF71FFF772FE019802B044
:1051DC00BDE81040FFF7DEBF02B010BD0078FFF74E
:1051EC00D9BF0000400830B5186000241868884208
:1051FC00E5B206D90134082C02D040081860F5E756
:10520C000725024B5B5D137030BD00BFCC600B00FB
:10521C002DE9F04306468FB000780C46FFF7BDFF32
:10522C0000281BDB35781422002109A800F068FD4A
:10523C000B23002209A92846ADF82430FFF758FEAD
:10524C009DF82D3013B19DF82C5055B10027B9465F
:10525C00B846012523795DB1C3B100200FB0BDE87C
:10526C00F083DDF830809DF834909DF83570F1E7CF
:10527C00002B35D1A368434508D18DF820908DF8CB
:10528C002170BDF82020A3899A42E6D00023A168A2
:10529C008DF80F300A9804AB0DF10F02FFF7A2FF47
:1052AC00217985B989B9A36843450ED38DF820902F
:1052BC008DF82170BDF82020A3899A4205D1049B5A
:1052CC00434502D1C9E70029F9D100230193637B3F
:1052DC0000939DF80F20237B3078FFF711FEBCE77D
:1052EC00CDE900552B462A460121F5E708B5007893
:1052FC00FFF7E6FDC0B208BD054B02221A60054B54
:10530C00054A9A600020C3E90000FFF751BE00BFB8
:10531C00D8E60320CCE603200000FFFF0248002360
:10532C000360FFF73DBD00BFDCE60320F8B5064681
:10533C000D468F180024BD420CD0336815F8011BA4
:10534C009B6830469847031E01DB1C44F3E7002C96
:10535C0008BF1C462046F8BD13B50446084659B193
:10536C00019100F003FD23680199DB680246204699
:10537C0002B0BDE81040184702B010BD08B5FFF7E9
:10538C00EBFF08BD03689B68184738B50D2105462F
:10539C00FFF7F8FF0A2104462846FFF7F3FF2044E5
:1053AC0038BD38B50546FFF7D7FF04462846FFF74A
:1053BC00ECFF204438BD30B58BB00023012A8DF8AA
:1053CC00243098BF0A2209AC0D46B1FBF2F101FB67
:1053DC00125303F0FF03092B94BF30333733DBB286
:1053EC00AA4204F8013DEFD92146FFF7B5FF0BB0F7
:1053FC0030BD2DE9F04186B000AF05460E46381D94
:10540C00142114463B60FFF76FFE13280ED8391D8C
:10541C002846FFF7A1FF04461EB12846FFF7B5FF4B
:10542C00044420461837BD46BDE8F08100F108035E
:10543C0023F00703E846ADEB030D2246411C3B6805
:10544C006846FFF751FE69462846FFF785FF04467C
:10545C00C546E1E7014B024A1A607047E0E60320BB
:10546C00D4600B00024B1A68024B1A60704700BFE5
:10547C0008E60320E4E603200021FFF7A1BD0000AD
:10548C00014B00229A607047E8E60320014B18603C
:10549C00704700BF0CE6032008B50B4B43B100F07E
:1054AC006DF903681B699847002801DDAFF3008094
:1054BC00064B43B100F0AAFB03681B699847002810
:1054CC0001DDAFF3008008BD00000000000000000B
:1054DC0008B5FFF7E1FFFFF75BFC014B186008BD57
:1054EC0040E703200548064A064908B5121A00F0A1
:1054FC00F9FB054B054A1A6008BD00BF00F40320F8
:10550C0004F40320F4620B0000F403201E1C279A01
:10551C0007B5002300931A466FF07701FFF762FD81
:10552C0003B05DF804FB000007B543880A2B08D0D4
:10553C00502B0BD1094B1B684BB103B05DF804EB3E
:10554C001847FFF7E5FF03B05DF804FB0023009359
:10555C001A466FF07701FFF745FDF4E7FCE60320F0
:10556C0010B512480021FFF7CFFD114B1A68114BF3
:10557C009A42114B0CBF012200221A7001D0FFF786
:10558C00B1FFFFF7FDFB044600F0C2FB0B4B13B160
:10559C002046AFF3008000210848FFF78DFDBDE8E1
:1055AC00104007480021FFF713BD00BF99540B00B2
:1055BC0000F403201E1C279AF8E6032000000000CC
:1055CC0035550B00704710B518210446FEF75DFDEC
:1055DC00204610BDF0B5037D062B8DB00E4600F1B4
:1055EC0004074FF0000412D000F1080515F8011D56
:1055FC000A223046FFF7DFFEAF42044419D0002CDC
:10560C00F4D02E213046FFF7BDFE0444EEE72F23E5
:10561C006A4639460A208DF80040FFF7C9FB6846F8
:10562C0000F0A4FB33680246DB68694630469847B5
:10563C00044620460DB0F0BD10B5054B04461122B2
:10564C0040F8043B002100F05BFB204610BD00BF7E
:10565C00FC600B000346074A10B543F8042B01F11C
:10566C00100251F8044B43F8044B9142F9D10A78DB
:10567C001A7010BDFC600B0010B59DF8084044EA90
:10568C00032343EA024242EA0161042341600375A9
:10569C0010BD000007B5064B0360CB7800938B78E8
:1056AC004A780978FFF7E8FF03B05DF804FB00BF08
:1056BC00FC600B00417470477047704708B50021BF
:1056CC00007CFFF755FC40EAE07008BD08B50121ED
:1056DC00007CFFF74DFC40EAE07008BD08B5007C8B
:1056EC00FFF73EFC20EAE07008BD08B5007CFFF730
:1056FC002FFC20EAE07008BD13B50446007C019134
:10570C00FFF72EFC0028019901DC607C20B1207C85
:10571C00FFF736FC20EAE07002B010BD007CFFF70A
:10572C0037BC10B514210446FEF7AFFC204610BD63
:10573C0010B54FF47A73044608460021C4E90113EE
:10574C00044B23600123207463741146FFF7F0FBB4
:10575C00204610BD10610B00007C0022FFF7F0BB4F
:10576C00007CFFF71DBCFFF7FBBF10B514220446ED
:10577C00002100F0C5FA204610BD000010B50F4CFA
:10578C0088B003A8FFF7F1FF2178BFF35B8F11F00E
:10579C0001010FD120460191FEF779FC019948B126
:1057AC0003AA0748FFF7C4FF2046FEF775FC05481F
:1057BC0000F092FA024808B010BD00BF00E70320C9
:1057CC0004E70320C5560B0070474174704708B5B9
:1057DC00007CFFF725FB20EAE07008BD08B5007CD3
:1057EC00FFF7F6FA20EAE07008BD08B5007CFFF779
:1057FC00FFFA40EAE07008BD08B5007CFFF7F0FA4C
:10580C0040EAE07008BD007CFFF7FABA37B5457C7A
:10581C0004462DB1207C03B0BDE83040FFF7D0BA70
:10582C00007C0191FFF7FCFA00280199F2DC284674
:10583C0003B030BD10B514210446FEF726FC2046FB
:10584C0010BD000010B54FF47A730446084611469B
:10585C000022C4E90123044B2360012320746374E8
:10586C00FFF7E6FA204610BD40610B007047F8B513
:10587C00064615460C468F18BC4206D0336814F801
:10588C00011B9B6830469847F6E72846F8BD007C1C
:10589C000022FFF7D5BA007C0021FFF7D9BA007CB3
:1058AC000021FFF7DDBA007C0021FFF7E1BA007C94
:1058BC000021FFF7E5BA10B514210446FEF7E5FB0D
:1058CC00204610BD38B5044615464FF47A730022B5
:1058DC00C4E90123094B2174084623602946FFF7CC
:1058EC00DFFABF3008D16B69DB0705D56868FFF7B5
:1058FC00F3FBE868FFF7F0FB204638BD70610B0046
:10590C00002240681146FFF78FBB00224068114609
:10591C00FFF7AABB002240681146FFF7B5BB4068F1
:10592C000022FFF7A9BB4068002281F00101FFF7BC
:10593C0093BB002340681A461946FFF785BB00232A
:10594C0040681A461946FFF777BB0022406811469B
:10595C00FFF75ABB406800220221FFF75DBB002312
:10596C0040681A46FFF748BB024B04225A60024AB1
:10597C001A60704718E7032098610B0000234068F9
:10598C001A46FFF739BB406800220221FFF744BBDF
:10599C00002240681146FFF737BB002240681146D1
:1059AC00FFF742BB002340681A461946FFF744BB79
:1059BC00002340681A461946FFF746BB4068002191
:1059CC00FFF76ABB40680021FFF76EBB40680022FE
:1059DC0081F00101FFF740BB40680022FFF74CBB90
:1059EC00002240681146FFF74FBB00224068114669
:1059FC00FFF73ABB2DE9F04395B014460D46074628
:105A0C00FFF71AFE00211C220DA8009100F078F976
:105A1C0040230C9320466B460CAA0021FFF788F913
:105A2C00044600284BD1024601216868FFF7FCFAB6
:105A3C000221804622466868FFF7F6FA009E8146EE
:105A4C002146002E3BD0002939D17368022B03D09C
:105A5C000A2B11D0F669F4E7B8F1000FFAD071698E
:105A6C0006A8043107ADFFF715FE0FCD3C1D0FC482
:105A7C002B6823704146EDE7B9F1000FEAD0746949
:105A8C00102201A800F03CF906238DF8143001AD6A
:105A9C0004F108031834186859682A4603C20833FD
:105AAC00A3421546F7D101A906A807ADFFF7D2FD11
:105ABC000FCD3C1D0FC42B6823704946CAE70098D4
:105ACC00FFF72EF9384615B0BDE8F083024B034AB8
:105ADC001A6000225A60704720E70320D4610B0043
:105AEC00232813B502D9002002B010BDA0F10B037E
:105AFC00022B1AD8174C2178BFF35B8F11F00101E0
:105B0C000BD120460191FEF7C2FA019928B1124837
:105B1C00FFF746FB2046FEF7BFFA0F4B1878FFF74E
:105B2C00DFF90028DFD10120DEE7012809D800F0D9
:105B3C00ADF80021007CFFF7ABF980F00100C0B29A
:105B4C00D2E709380128EED800F060F8007CFFF7A6
:105B5C005FF9F2E7A8E60320ACE60320232838B56A
:105B6C0004460D460AD8FF2908D0FFF7B9FF28B123
:105B7C0029462046BDE83840FFF7E2B838BD38B5B5
:105B8C0004460D46FFF7E4F8FF2810D0062804D889
:105B9C004D2323FA00F0C30709D42046FFF7A0FFDA
:105BAC0028B129462046BDE83840FFF7D9B838BDA2
:105BBC0010B50446FFF7CCF8031FDBB2012B08D954
:105BCC002046FFF78DFF20B12046BDE81040FFF7BF
:105BDC00CFB8002010BD704738B5044614252A46AE
:105BEC00002100F08DF825804025074925812846A5
:105BFC00258200F06FF804496060284600F06AF8CE
:105C0C00E060204638BD00BF08620B0030B50E4D79
:105C1C002978BFF35B8F11F0010487B011D12846AE
:105C2C00FEF735FA68B101A8FFF7D6FF01AA2146A5
:105C3C000648FFF707FE2846FEF72EFA044800F048
:105C4C004BF8024807B030BD28E703202CE70320AF
:105C5C00E35B0B007047000038B50A4B036001236F
:105C6C00044643610849202000F034F82025606088
:105C7C000549A560284600F02DF8C4E90305204627
:105C8C0038BD00BF1800010008620B0030B50E4D86
:105C9C002978BFF35B8F11F0010487B011D128462E
:105CAC00FEF7F5F968B16846FFF7D6FF6A4621465C
:105CBC000648FFF707FE2846FEF7EEF9044800F009
:105CCC000BF8024807B030BD44E7032048E7032037
:105CDC00615C0B00FEF7D7B9002301461A46184643
:105CEC0000F04CB80A44914200F1FF3300D17047E8
:105CFC0010B511F8014B03F8014F9142F9D110BDC9
:105D0C0002440346934200D1704703F8011BF9E7A4
:105D1C0038B5104B1D68AB6B0446B3B91820FFF7B0
:105D2C00D3F90246A86320B90B4B0C484221FFF76C
:105D3C00E3F90B490B4BC0E900130B4B83600B23AE
:105D4C00838100210120C2E90401AB6B00221C619C
:105D5C005A6138BD0CE6032009620B0020620B006F
:105D6C000E33CDAB34126DE6ECDE0500034613F8B2
:105D7C00012B002AFBD1181A013870472DE9F84382
:105D8C00DFF8B8800646D8F800001F460D4691464D
:105D9C0000F056F8254B1C6834B9254C1C60254B7B
:105DAC0013B11B68C4F8883063681F2B07DDD8F863
:105DBC00000000F047F84FF0FF30BDE8F8834EB319
:105DCC00D4F8880088B91C4B23B9D8F8000000F02F
:105DDC0038F8F0E74FF48470FFF776F90028F4D028
:105DEC000023C0E94033C4F88800636840F823906E
:105DFC0001229A4000EB8301D0F800311343C0F824
:105E0C000031022EC1F8807002BFD0F80431134368
:105E1C00C0F804316368D8F800005A1C0233626081
:105E2C0044F8235000F00EF80020C6E7E8E7032002
:105E3C005CE7032000000000D5500B0070E6032047
:105E4C0070477047704700001D400B0059400B0015
:105E5C0081400B0085400B00000000005374617200
:105E6C0074696E67204C6F52612E2E2E004661694C
:105E7C006C656400436865636B20796F7572207282
:105E8C006164696F004F4B0053656E64696E6720E7
:105E9C004C6F526120446174612E2E2E004672614B
:105EAC006D6520436F756E7465723A200064656C85
:105EBC006179696E672E2E2E0064656661756C744F
:105ECC0020004D5342004C5342003C535049536503
:105EDC007474696E67732064656661756C743E00DA
:105EEC003C53504953657474696E67732025732550
:105EFC0075202573204D4F444525753E0053504960
:105F0C00205265616420414444523A2000204441AF
:105F1C0054413A200053504920577269746520410E
:105F2C004444523A20005061636B616765206C6594
:105F3C006E6774683A200073656E74207061636BD1
:105F4C0061676521000000000000000000000000F7
:105F5C00F5410B00C9410B00CB410B0000000000C8
:105F6C00000000000000000000000000E1F9C0E2A9
:105F7C00068CE21359E22026E22CF3E239C0E24609
:105F8C008CE25359637C777BF26B6FC53001672BC6
:105F9C00FED7AB76CA82C97DFA5947F0ADD4A2AF11
:105FAC009CA472C0B7FD9326363FF7CC34A5E5F11F
:105FBC0071D8311504C723C31896059A071280E2CD
:105FCC00EB27B27509832C1A1B6E5AA0523BD6B321
:105FDC0029E32F8453D100ED20FCB15B6ACBBE3991
:105FEC004A4C58CFD0EFAAFB434D338545F9027F7D
:105FFC00503C9FA851A3408F929D38F5BCB6DA2136
:10600C0010FFF3D2CD0C13EC5F974417C4A77E3D61
:10601C00645D197360814FDC222A908846EEB814B7
:10602C00DE5E0BDBE0323A0A4906245CC2D3AC627A
:10603C009195E479E7C8376D8DD54EA96C56F4EA85
:10604C00657AAE08BA78252E1CA6B4C6E8DD741F96
:10605C004BBD8B8A703EB5664803F60E613557B959
:10606C0086C11D9EE1F8981169D98E949B1E87E913
:10607C00CE5528DF8CA1890DBFE6426841992D0FC2
:10608C00B054BB16000000000000000083510B0050
:10609C0079510B006F510B0065510B0059510B00DE
:1060AC004D510B00C9590B00D1590B0041510B003C
:1060BC0039510B002F510B0025510B00015A0B00CD
:1060CC0000081018202830386170700025592D25D3
:1060DC006D2D25645425483A254D3A2553257A00D3
:1060EC0061736374696D65000000000000000000BE
:1060FC00E1550B00D1550B00D3550B0000000000EF
:10610C0000000000C7560B002F570B0005570B0063
:10611C0039530B00F7560B00C9560B00D9560B0020
:10612C0029570B00E9560B00C1560B00000000006C
:10613C0000000000D5570B0041580B0019580B00FC
:10614C0039530B00E9570B0005580B00F7570B00A0
:10615C0013580B00D7570B00DB570B000000000047
:10616C000000000079580B00C3580B009B580B0023
:10617C007B580B00A3580B00AB580B00B3580B000B
:10618C00BB580B0000000000000000006B590B0016
:10619C0061590B0057590B000D590B004B590B0053
:1061AC003F590B00C9590B00D1590B0033590B0047
:1061BC002B590B0021590B0017590B00015A0B00DE
:1061CC00000000000000000089590B0093590B00DF
:1061DC009D590B00A7590B00B1590B00BD590B0071
:1061EC00C9590B00D1590B00D9590B00E5590B00BB
:1061FC00ED590B00F7590B00015A0B0000524545A5
:10620C004E54206D616C6C6F6320737563636565B0
:10621C00646564002F6D6E742F776F726B73706191
:10622C0063652F776F726B73706163652F474343A0
:10623C002D31302D706970656C696E652F6A656ED5
:10624C006B696E732D4743432D31302D706970652A
:10625C006C696E652D34385F323032303131323406
:10626C005F313630363138303634312F7372632F1C
:10627C006E65776C69622F6E65776C69622F6C69DD
:10628C0062632F7374646C69622F72616E642E6327
:10629C0000000000B9410B000D4D0B008D510B009F
:1062AC0005530B0029530B0061540B0071540B0068
:1062BC008D540B0075590B00D95A0B0000000000CF
:0462CC0000000000CE
:1062D000040000001400000003000000474E5500B9
:1062E00020FF806E75F84A1285661D88A2BE9F9CAD
:0462F000395B30F7EF
:0462F40000000000A6
:1062F80068656C6C6F204C6F52610000EC600B009D
:1063080010E603200000000000000000000000006C
:106318000000000000000000000000000000000075
:106328000000000000000000000000000000000065
:106338000000000000000000000000000000000055
:106348000000000000000000000000000000000045
:106358000000000000000000000000000000000035
:0863680000000000ECE7032037
:10637000FFFFFFFF00000102030405060708090AEA
:106380000B0C0D0E0F101112131415161718191AE5
:086390001B1C1D1E1F2028002C
:0463980078563412ED
:04000003B000401CED
:00000001FF
